:100000000C945D000C9485000C9485000C94850084
:100010000C9485000C9485000C9485000C9485004C
:100020000C9485000C9485000C9485000C9485003C
:100030000C9485000C9485000C9485000C9485002C
:100040000C940F040C9485000C94C8060C94FA06CA
:100050000C9485000C9485000C9485000C9485000C
:100060000C9485000C94850000000008000201003B
:100070000003040700000000000000000102040863
:100080001020408001020408102001020408102002
:10009000040404040404040402020202020203032E
:1000A0000303030300000000250028002B000000CC
:1000B0000000240027002A002A0711241FBECFEFCA
:1000C000D8E0DEBFCDBF13E0A0E0B1E0EAE2F1E1AD
:1000D00002C005900D92A838B107D9F724E0A8E82E
:1000E000B3E001C01D92A536B207E1F710E0CAEBFC
:1000F000D0E004C02297FE010E948F08C83BD107C0
:10010000C9F70E946E070C9493080C940000E1E874
:10011000F0E090818770987F892B80830895CF923B
:10012000DF92EF92FF926B017C01DC01CB01019722
:10013000A109B10980389448AE41B10508F041C029
:10014000A70196016EEF7FEF81E090E00E944108E9
:100150009B01AC0160E074E284EF90E00E945108E2
:10016000E0E061E06E0FF0E0EE0FFF1FEF5EFE4F8C
:10017000808191818217930710F4E62FF2CFA701B7
:100180009601220F331F441F551FE62EF12CF70155
:10019000EE0FFF1FEF5EFE4FA081B1810E9482082B
:1001A0009B01AC0160E074E284EF90E00E94510892
:1001B0003093870020938600C7010E94870081E06A
:1001C00001C080E0FF90EF90DF90CF900895E0E8CD
:1001D000F0E080818C7F8083E1E8F0E08081877EA1
:1001E0008061808364EF71E080E090E00C948F0088
:1001F000FC01EB5BFF4F8081887F6770862B8083DB
:100200000895FC01EB5BFF4F8081887F6770862B30
:10021000808308954F925F926F927F928F929F9208
:10022000AF92BF92CF92DF92EF92FF92CF93DF9384
:10023000EC016A017B01DB01CA014F97A109B109F9
:1002400082369448AE41B10508F05BC0AEEFB1E034
:100250009A01AB010E9482089B01AC0160E074E24C
:1002600084EF90E00E94510846015701880C991CC8
:10027000AA1CBB1CD12C412C84E2582E84EF682E82
:10028000712CCC36D10569F0D394ED2DF0E0EE0F52
:10029000FF1FEF5EFE4FE080F180E216F306A0F351
:1002A0000CC0D394ED2DF0E0EE0FFF1FEF5FFE4F7B
:1002B000E080F180E216F306A0F3D701A5019401D6
:1002C0000E9482089B01AC01C301B2010E94510847
:1002D0002F3F310519F010F09701D3CFFE01E95BF4
:1002E000FF4F20836D2D70E0CC36D10521F0CE017B
:1002F0000E94F80004C08CE690E00E94010181E0B9
:1003000001C080E0DF91CF91FF90EF90DF90CF9020
:10031000BF90AF909F908F907F906F905F904F9025
:100320000895FC01EC5BFF4F20812C7F216020832E
:100330003196208128602083009729F420916E0057
:100340002E7F20936E0044EF51E060E070E00C944B
:100350000A010F931F93CF93DF93C82F8B0161E0A6
:100360000E9414050115110511F460E005C00F3F4E
:100370008FEF180741F461E08C2FDF91CF911F912F
:100380000F910C944D05EC2FF0E0E859FF4FE491EC
:10039000E330D1F050F4E23079F584B5806284BD69
:1003A00027B530E0C8E4D0E038C0E430C9F0E83028
:1003B00019F58091B00080628093B0002091B30065
:1003C00030E0C4EBD0E029C0809180008068809349
:1003D00080002091860030918700C8E8D0E011C0ED
:1003E000809180008062809380002091860030910F
:1003F0008700CAE8D0E005C00038110508F4B5CF81
:10040000BACFD8010E9473082FEF3FEF40E050E0D1
:100410000E945108398328830AC0D8010E947308BA
:100420002FEF3FEF40E050E00E9451082883DF911A
:10043000CF911F910F9108950E94E7008CE690E004
:100440000C949101E82FFF27E7FDF095E859FF4F45
:10045000E491E23019F480E090E00CC08DEF8E0F53
:10046000823020F4CB01BA010C948F00E83021F4E3
:100470008CE690E00C940A0180E008950F931F939E
:10048000CF93DF93EC01662359F00E9459046983EE
:100490007A838B839C83DF91CF911F910F91089575
:1004A0000E94590409811A812B813C81601B710BC8
:1004B000820B930B623371058105910530F763E080
:1004C00070E080E090E00E948804EACF60E00C9445
:1004D0003E02FC0113AA14AA15AA16AA11821282BE
:1004E00013821482411551056105710521F0CB017C
:1004F000BA010C9488040895FB01BA01A901DC013A
:10050000D296FC93EE93D19726E0CF010C94660629
:100510001F93CF93DF93EC01162F6DE171E089A952
:100520009AA90E94BB074AE050E0612F89A99AA9C5
:100530000E94390864E271E089A99AA90E94BB0768
:1005400062E370E080E090E0DF91CF911F910C9426
:1005500088041F93CF93DF93EC01162F8D8188239E
:1005600089F189A99AA9DC01ED91FC910480F581BA
:10057000E02D0995892BA9F307C02637310519F11C
:100580002835310509F41D8289A99AA9DC01ED916C
:10059000FC910480F581E02D09951816190694F454
:1005A00089A99AA9DC01ED91FC910680F781E02DE3
:1005B00009959C01332723363105F9F6612FCE01C9
:1005C0000E94880283E6DF91CF911F9108950F93D7
:1005D0001F93CF93DF931F92CDB7DEB78C016623B5
:1005E00049F081E0F801858360E0C80149830E94F9
:1005F000A9024981F80145830F90DF91CF911F91A6
:100600000F91089540ED57E060E070E088E893E0D6
:100610000E94690220E835E240E050E068EC73E0B7
:1006200088E893E00E947C0288E893E00E946602DA
:1006300065E771E08091B9039091BA030E94BB070E
:100640006AE070E080E090E00E94880441E060E0B1
:1006500088E893E00E94E7020E941C0226E040E83E
:1006600055E260E070E088EC93E00E94660688EC5A
:1006700093E00E94BD0761E082E00E94140561E002
:1006800083E00E94140560E089E00E94140560E0A8
:100690008AE00C94140548E853E160E070E089E0DA
:1006A0000E94220248E853E160E070E08AE00E9484
:1006B00022026FE072E088EC93E00E94C10760E0E4
:1006C00070E889E00E94A90160E070E88AE00E9479
:1006D000A90163E073E088EC93E00C94C107CF9329
:1006E00088EC93E00E949C05C82F8337A1F467E152
:1006F00073E088EC93E00E94C1076AE173E088EC44
:1007000093E00E94C10760E089E00E94140560E068
:100710008AE00E94140580910001882311F0C636FA
:1007200011F0C23621F4109200010E944B03C6362C
:10073000B1F467E173E088EC93E00E94C10766E2E0
:1007400073E088EC93E00E94C10761E089E00E94B9
:10075000140561E08AE00E94140561E017C0CC3600
:10076000D1F467E173E088EC93E00E94C10768E38D
:1007700073E088EC93E00E94C10761E089E00E9489
:10078000140561E08AE00E94140560E082E00E94A6
:100790004D0560E033C0C237B1F467E173E088EC27
:1007A00093E00E94C10769E473E088EC93E00E9443
:1007B000C10761E089E00E94140561E08AE00E94BF
:1007C000140561E017C0C236E9F467E173E088EC14
:1007D00093E00E94C1076BE573E088EC93E00E9410
:1007E000C10761E089E00E94140561E08AE00E948F
:1007F000140560E082E00E944D0561E083E0CF9146
:100800000C944D05CF91089588EC93E00E948305E8
:10081000181619061CF480E00C946F0308951F92BB
:100820000F920FB60F9211242F933F938F939F93A4
:10083000AF93BF938091C0039091C103A091C20375
:10084000B091C3033091BF0323E0230F2D3720F471
:100850000196A11DB11D05C026E8230F0296A11D1A
:10086000B11D2093BF038093C0039093C103A09355
:10087000C203B093C3038091C4039091C503A091B8
:10088000C603B091C7030196A11DB11D8093C40397
:100890009093C503A093C603B093C703BF91AF91D4
:1008A0009F918F913F912F910F900FBE0F901F90AE
:1008B00018952FB7F8946091C0037091C10380918F
:1008C000C2039091C3032FBF08953FB7F89480915E
:1008D000C4039091C503A091C603B091C70326B588
:1008E000A89B05C02F3F19F00196A11DB11D3FBF68
:1008F0006627782F892F9A2F620F711D811D911DF8
:1009000042E0660F771F881F991F4A95D1F7089517
:10091000CF92DF92EF92FF92CF93DF936B017C0136
:100920000E946504EB01C114D104E104F10489F0D3
:100930000E9440080E9465046C1B7D0B683E73405A
:1009400090F381E0C81AD108E108F108C851DC4FE2
:10095000EACFDF91CF91FF90EF90DF90CF90089595
:10096000789484B5826084BD84B5816084BD85B58A
:10097000826085BD85B5816085BDEEE6F0E0808151
:1009800081608083E1E8F0E0108280818260808372
:10099000808181608083E0E8F0E0808181608083F5
:1009A000E1EBF0E0808184608083E0EBF0E0808127
:1009B00081608083EAE7F0E08081846080838081C9
:1009C0008260808380818160808380818068808371
:1009D0001092C1000895833081F028F4813099F09D
:1009E0008230A1F008958730A9F08830B9F08430C2
:1009F000D1F4809180008F7D03C0809180008F773B
:100A000080938000089584B58F7702C084B58F7D70
:100A100084BD08958091B0008F7703C08091B000AD
:100A20008F7D8093B0000895CF93DF9390E0FC0119
:100A3000E458FF4F2491FC01E057FF4F8491882335
:100A400049F190E0880F991FFC01E255FF4FA591F5
:100A5000B4918C559F4FFC01C591D4919FB7611102
:100A600008C0F8948C91209582238C9388818223EE
:100A70000AC0623051F4F8948C91322F3095832360
:100A80008C938881822B888304C0F8948C91822B6C
:100A90008C939FBFDF91CF9108950F931F93CF93B6
:100AA000DF931F92CDB7DEB7282F30E0F901E85968
:100AB000FF4F8491F901E458FF4F1491F901E05779
:100AC000FF4F04910023C9F0882321F069830E941D
:100AD000EB046981E02FF0E0EE0FFF1FEC55FF4FB4
:100AE000A591B4919FB7F8948C91611103C01095B2
:100AF000812301C0812B8C939FBF0F90DF91CF91F9
:100B00001F910F910895FC01818D228D90E0805CF2
:100B10009F4F821B91098F7399270895FC01918D36
:100B2000828D981731F0828DE80FF11D858D90E050
:100B300008958FEF9FEF0895FC01918D828D981796
:100B400061F0828DDF01A80FB11D5D968C91928DB1
:100B50009F5F9F73928F90E008958FEF9FEF0895AE
:100B600080E297E0892B49F080E090E0892B29F022
:100B70000E94200781110C9400000895FC01848DCF
:100B8000DF01A80FB11DA35ABF4F2C91848D90E0B7
:100B900001968F739927848FA689B7892C93A08992
:100BA000B1898C9180648C93938D848D981306C049
:100BB0000288F389E02D80818F7D80830895CF9313
:100BC000DF93EC01888D8823C9F0EA89FB89808155
:100BD00085FD05C0A889B9898C9186FD0FC00FB627
:100BE00007FCF5CF808185FFF2CFA889B9898C9168
:100BF00085FFEDCFCE010E94BE05E7CFDF91CF91FB
:100C00000895CF92DF92FF920F931F93CF93DF93BC
:100C10001F92CDB7DEB76C0181E0D60158968C9358
:100C200058975B969C915B975C968C915C97981318
:100C300007C05096ED91FC915197808185FD2EC0A3
:100C4000F601038D10E00F5F1F4F0F731127F02E79
:100C5000F601848DF81211C00FB607FCF9CFD6014A
:100C60005096ED91FC915197808185FFF1CFC6019F
:100C700069830E94BE056981EBCF838DE80FF11D6A
:100C8000E35AFF4F6083D6015B960C935B975296B5
:100C9000ED91FC915397808180620CC0D6015696ED
:100CA000ED91FC91579760835096ED91FC9151978F
:100CB00080818064808381E090E00F90DF91CF910C
:100CC0001F910F91FF90DF90CF900895BF92CF9228
:100CD000DF92EF92FF92CF93DF93EC016A017B01E9
:100CE000B22EE889F98982E08083411581EE5807A8
:100CF00061057105A1F060E079E08DE390E0A70166
:100D000096010E9451082150310941095109569517
:100D1000479537952795211580E1380798F0E889A0
:100D2000F989108260E874E88EE190E0A7019601ED
:100D30000E945108215031094109510956954795A2
:100D400037952795EC85FD853083EE85FF852083DB
:100D5000188EEC89FD89B082EA89FB8980818061E7
:100D60008083EA89FB89808188608083EA89FB89A6
:100D7000808180688083EA89FB8980818F7D808380
:100D8000DF91CF91FF90EF90DF90CF90BF900895CB
:100D90001F920F920FB60F9211242F938F939F9350
:100DA000EF93FF93E091D803F091D9038081E09114
:100DB000DE03F091DF0382FD12C090818091E10398
:100DC0008F5F8F732091E203821751F0E091E1036E
:100DD000F0E0E853FC4F958F8093E10301C08081E0
:100DE000FF91EF919F918F912F910F900FBE0F90D8
:100DF0001F9018951F920F920FB60F9211242F93E8
:100E00003F934F935F936F937F938F939F93AF9392
:100E1000BF93EF93FF9388EC93E00E94BE05FF9190
:100E2000EF91BF91AF919F918F917F916F915F9162
:100E30004F913F912F910F900FBE0F901F901895DB
:100E400088EC93E00E94830521E0892B09F420E0DF
:100E5000822F08951092CB031092CA0388EE93E07C
:100E6000A0E0B0E08093CC039093CD03A093CE0399
:100E7000B093CF038FE693E09093C9038093C803A8
:100E800085EC90E09093D5038093D40384EC90E0BC
:100E90009093D7038093D60380EC90E09093D9038E
:100EA0008093D80381EC90E09093DB038093DA0386
:100EB00082EC90E09093DD038093DC0386EC90E07D
:100EC0009093DF038093DE031092E1031092E2031C
:100ED0001092E3031092E403089508950E94B00471
:100EE0000E946D070E940203C0EBD5E00E9404043B
:100EF0002097E1F30E94B005F9CFCF92DF92EF92F5
:100F0000FF920F931F93CF93DF937C016A01EB0154
:100F100000E010E00C151D0571F06991D701ED910D
:100F2000FC910190F081E02DC7010995892B19F002
:100F30000F5F1F4FEFCFC801DF91CF911F910F912E
:100F4000FF90EF90DF90CF9008956115710581F0CB
:100F5000DB010D900020E9F7AD0141505109461B1E
:100F6000570BDC01ED91FC910280F381E02D099497
:100F700080E090E008950C94A50760E073E00C9485
:100F8000A5070F931F93CF93DF93EC010E94A50752
:100F90008C01CE010E94BD07800F911FDF91CF9180
:100FA0001F910F9108958F929F92AF92BF92CF920F
:100FB000DF92EF92FF920F931F93CF93DF93CDB702
:100FC000DEB7A1970FB6F894DEBF0FBECDBF7C0190
:100FD000C42EE52FCB01D22E19A221E02D1510F041
:100FE0002AE0D22E8E010F5D1F4F8D2C912CA12C4B
:100FF000B12C6C2D7E2FA50194010E9451088C2DDF
:10100000D29E80191124015011098A3014F4805D98
:1010100001C0895CF8018083211531054105510526
:1010200021F0C22EE32FCA01E4CFB801C7010E940C
:10103000A507A1960FB6F894DEBF0FBECDBFDF9116
:10104000CF911F910F91FF90EF90DF90CF90BF90C5
:10105000AF909F908F9008952115310541F4DC01E8
:10106000ED91FC910190F081E02D642F09940C9496
:10107000D3079A01462F50E060E070E00C942C08F2
:101080000895DB018F939F930E948208BF91AF91D7
:10109000A29F800D911DA39F900DB29F900D1124D2
:1010A0000895A1E21A2EAA1BBB1BFD010DC0AA1FA9
:1010B000BB1FEE1FFF1FA217B307E407F50720F0C1
:1010C000A21BB30BE40BF50B661F771F881F991F3C
:1010D0001A9469F760957095809590959B01AC0185
:1010E000BD01CF010895A29FB001B39FC001A39F8E
:1010F000700D811D1124911DB29F700D811D112451
:10110000911D08950E947308A59F900DB49F900DA6
:10111000A49F800D911D11240895EE0FFF1F0590CF
:0A112000F491E02D0994F894FFCF3C
:10112A0001000001000800200040008000000100CA
:10113A0004000001000800400000010004564D446C
:10114A0050435F005F564D4450430D0A004572728A
:10115A006F723A20417474656D707420746F2073D5
:10116A006574206120726561642D6F6E6C792076DA
:10117A0061726961626C65206F72206461746120BA
:10118A0074797065206E6F7420737570706F7274E5
:10119A0065640D0A00564D4450565F317C315F56E6
:1011AA004D4450560D0A004173206672657175658B
:1011BA006E637920696E637265617365732C207240
:1011CA0065736F6C7574696F6E2077696C6C2064D7
:1011DA00656372656173652E2E2E004672657175A0
:1011EA00656E63793A20257520487A0D0A204E7576
:1011FA006D626572206F6620506F737369626C65E9
:10120A00204475746965733A2025750D0A20526564
:10121A00736F6C7574696F6E3A20257520626974F4
:10122A000D0A002E2E2E46696E6973686564000DDC
:10123A000A70776D5772697465282920616E642077
:10124A0070776D57726974654852282920617265F2
:10125A00206964656E746963616C20657863657082
:10126A007420666F72207468652076616C696420E8
:10127A0072616E6765206F6620696E707574732E71
:10128A000D0A54686520666F6C6C6F77696E67200B
:10129A006C6F6F702063616C6C7320626F7468206E
:1012AA0066756E6374696F6E7320746F2070726FE7
:1012BA0064756365207468652073616D6520726565
:1012CA0073756C74206F6E20746865200D0A4C4526
:1012DA00442070696E2E205468652070696E2073F0
:1012EA00686F756C6420746F2072756E2031304897
:1012FA007A206174203530252064757479207265EE
:10130A00676172646C657373206F66207468652008
:10131A0066756E6374696F6E2063616C6C65642EAA
:10132A000D0A0048696768205265736F6C757469A5
:10133A006F6E2050574D006F6B0074727920746F76
:10134A002073746F700074727920746F20676F2035
:10135A00666F72776172640074727920746F207498
:10136A0075726E206C6566740074727920746F20D1
:10137A007475726E20726967687400747279207469
:10138A006F2072756E206261636B000000000001BD
:10139A00067D0783059C058E05DF056E616E006973
:0813AA006E66006F766600001C
:00000001FF
